{
  "contractName": "Lottery",
  "abi": [
    {
      "inputs": [],
      "stateMutability": "nonpayable",
      "type": "constructor"
    },
    {
      "inputs": [
        {
          "internalType": "address",
          "name": "",
          "type": "address"
        },
        {
          "internalType": "uint256",
          "name": "",
          "type": "uint256"
        }
      ],
      "name": "addr",
      "outputs": [
        {
          "internalType": "string",
          "name": "",
          "type": "string"
        }
      ],
      "stateMutability": "view",
      "type": "function"
    },
    {
      "inputs": [],
      "name": "value",
      "outputs": [
        {
          "internalType": "string",
          "name": "",
          "type": "string"
        }
      ],
      "stateMutability": "view",
      "type": "function"
    },
    {
      "inputs": [
        {
          "internalType": "string",
          "name": "adress1",
          "type": "string"
        },
        {
          "internalType": "string",
          "name": "adress2",
          "type": "string"
        }
      ],
      "name": "setAddr",
      "outputs": [],
      "stateMutability": "nonpayable",
      "type": "function"
    },
    {
      "inputs": [],
      "name": "Ready",
      "outputs": [],
      "stateMutability": "nonpayable",
      "type": "function"
    },
    {
      "inputs": [],
      "name": "Deploy",
      "outputs": [],
      "stateMutability": "nonpayable",
      "type": "function"
    },
    {
      "inputs": [],
      "name": "isState",
      "outputs": [
        {
          "internalType": "string",
          "name": "",
          "type": "string"
        }
      ],
      "stateMutability": "view",
      "type": "function"
    },
    {
      "inputs": [
        {
          "internalType": "string",
          "name": "address1",
          "type": "string"
        },
        {
          "internalType": "string",
          "name": "address2",
          "type": "string"
        }
      ],
      "name": "returnAddr",
      "outputs": [
        {
          "internalType": "string",
          "name": "",
          "type": "string"
        },
        {
          "internalType": "string",
          "name": "",
          "type": "string"
        }
      ],
      "stateMutability": "view",
      "type": "function"
    }
  ],
  "bytecode": "0x60c060405260076080819052666d7956616c756560c81b60a09081526200002a9160009190620000db565b506040518060600160405280604051806040016040528060078152602001665374616e64627960c81b815250815260200160405180604001604052806005815260200164526561647960d81b81525081526020016040518060400160405280600881526020016711195c1b1bde595960c21b8152508152506001906003620000b49291906200016a565b50348015620000c257600080fd5b50600680546001600160a01b0319163317905562000274565b828054620000e99062000237565b90600052602060002090601f0160209004810192826200010d576000855562000158565b82601f106200012857805160ff191683800117855562000158565b8280016001018555821562000158579182015b82811115620001585782518255916020019190600101906200013b565b5062000166929150620001bd565b5090565b8260038101928215620001af579160200282015b82811115620001af57825180516200019e918491602090910190620000db565b50916020019190600101906200017e565b5062000166929150620001d4565b5b80821115620001665760008155600101620001be565b8082111562000166576000620001eb8282620001f5565b50600101620001d4565b508054620002039062000237565b6000825580601f1062000214575050565b601f016020900490600052602060002090810190620002349190620001bd565b50565b600181811c908216806200024c57607f821691505b602082108114156200026e57634e487b7160e01b600052602260045260246000fd5b50919050565b61078280620002846000396000f3fe608060405234801561001057600080fd5b506004361061007d5760003560e01c80636e12fa0f1161005b5780636e12fa0f146100c85780639472b2b1146100d2578063d9659eff146100f3578063e01b528e146100fd57600080fd5b80632c3e340c146100825780633fa4f245146100975780635f9a29df146100b5575b600080fd5b610095610090366004610607565b610105565b005b61009f610171565b6040516100ac91906106b3565b60405180910390f35b61009f6100c33660046105d1565b6101ff565b6100956001600455565b6100e56100e0366004610607565b610237565b6040516100ac9291906106cd565b6100956002600455565b61009f6103cf565b336000908152600560209081526040822080546001810182559083529181902084516101389391909101918501906104b1565b503360009081526005602090815260408220805460018101825590835291819020835161016c9391909101918401906104b1565b505050565b6000805461017e906106fb565b80601f01602080910402602001604051908101604052809291908181526020018280546101aa906106fb565b80156101f75780601f106101cc576101008083540402835291602001916101f7565b820191906000526020600020905b8154815290600101906020018083116101da57829003601f168201915b505050505081565b6005602052816000526040600020818154811061021b57600080fd5b9060005260206000200160009150915050805461017e906106fb565b336000908152600560205260408120805460609283929161026857634e487b7160e01b600052603260045260246000fd5b90600052602060002001805461027d906106fb565b80601f01602080910402602001604051908101604052809291908181526020018280546102a9906106fb565b80156102f65780601f106102cb576101008083540402835291602001916102f6565b820191906000526020600020905b8154815290600101906020018083116102d957829003601f168201915b50503360009081526005602052604090208054949850936001935083109150610331905057634e487b7160e01b600052603260045260246000fd5b906000526020600020018054610346906106fb565b80601f0160208091040260200160405190810160405280929190818152602001828054610372906106fb565b80156103bf5780601f10610394576101008083540402835291602001916103bf565b820191906000526020600020905b8154815290600101906020018083116103a257829003601f168201915b5097989397509295505050505050565b60606004546000141561048e576001600454600381106103ff57634e487b7160e01b600052603260045260246000fd5b01805461040b906106fb565b80601f0160208091040260200160405190810160405280929190818152602001828054610437906106fb565b80156104845780601f1061045957610100808354040283529160200191610484565b820191906000526020600020905b81548152906001019060200180831161046757829003601f168201915b5050505050905090565b6001600454600381106103ff57634e487b7160e01b600052603260045260246000fd5b8280546104bd906106fb565b90600052602060002090601f0160209004810192826104df5760008555610525565b82601f106104f857805160ff1916838001178555610525565b82800160010185558215610525579182015b8281111561052557825182559160200191906001019061050a565b50610531929150610535565b5090565b5b808211156105315760008155600101610536565b600082601f83011261055a578081fd5b813567ffffffffffffffff8082111561057557610575610736565b604051601f8301601f19908116603f0116810190828211818310171561059d5761059d610736565b816040528381528660208588010111156105b5578485fd5b8360208701602083013792830160200193909352509392505050565b600080604083850312156105e3578182fd5b82356001600160a01b03811681146105f9578283fd5b946020939093013593505050565b60008060408385031215610619578182fd5b823567ffffffffffffffff80821115610630578384fd5b61063c8683870161054a565b93506020850135915080821115610651578283fd5b5061065e8582860161054a565b9150509250929050565b60008151808452815b8181101561068d57602081850181015186830182015201610671565b8181111561069e5782602083870101525b50601f01601f19169290920160200192915050565b6020815260006106c66020830184610668565b9392505050565b6040815260006106e06040830185610668565b82810360208401526106f28185610668565b95945050505050565b600181811c9082168061070f57607f821691505b6020821081141561073057634e487b7160e01b600052602260045260246000fd5b50919050565b634e487b7160e01b600052604160045260246000fdfea2646970667358221220759447c343260e66567ba8069d4562480734480f35a390d8dafde3626fe20e1464736f6c63430008040033",
  "immutableReferences": {},
  "source": "pragma solidity ^0.8.4;\n\ncontract Lottery {\n enum state {Standby,Ready,Deployed}\n    string public value = \"myValue\";\n    string[3] ListState = [\"Standby\",\"Ready\",\"Deployed\"];\n    uint256 stateNum;\n    mapping (address => string[]) public addr;\n    address owner;\n    constructor() public {\n    state.Standby;\n    owner = msg.sender;\n    }\n    modifier adminCheck() {\n        require(msg.sender == owner);\n        _;\n    }\n    function setAddr(string memory adress1, string memory adress2) public {\n        addr[payable(msg.sender)].push(adress1);\n        addr[payable(msg.sender)].push(adress2);\n    }\n    function Ready() public{\n        state.Ready;\n        stateNum = 1;\n    }\n    function Deploy() public{\n        stateNum = 2;\n        state.Deployed;\n\n    }\n    function isState() public view returns (string memory){\n        if(stateNum == 0){\n            return ListState[stateNum];\n        }\n            else{\n                 return ListState[stateNum];\n        }\n\n    }\n    function returnAddr(string memory address1 , string memory address2) public  view returns(string memory , string memory) {\n        address1 = addr[payable(msg.sender)][0];\n        address2 = addr[payable(msg.sender)][1];\n\n        return(address1,address2);\n    }\n}",
  "sourcePath": "/home/th3shadow/Documents/BlockChain Stuff/contracts/Lottery.sol",
  "compiler": {
    "name": "solc",
    "version": "0.8.4+commit.c7e474f2.Emscripten.clang"
  },
  "schemaVersion": "3.4.1",
  "updatedAt": "2021-05-30T14:12:07.019Z",
  "devdoc": {
    "kind": "dev",
    "methods": {},
    "version": 1
  },
  "userdoc": {
    "kind": "user",
    "methods": {},
    "version": 1
  }
}