{
  "contractName": "RandomNumberConsumer",
  "abi": [
    {
      "inputs": [],
      "stateMutability": "nonpayable",
      "type": "constructor"
    },
    {
      "inputs": [],
      "name": "randomResult",
      "outputs": [
        {
          "internalType": "uint256",
          "name": "",
          "type": "uint256"
        }
      ],
      "stateMutability": "view",
      "type": "function"
    },
    {
      "inputs": [
        {
          "internalType": "bytes32",
          "name": "requestId",
          "type": "bytes32"
        },
        {
          "internalType": "uint256",
          "name": "randomness",
          "type": "uint256"
        }
      ],
      "name": "rawFulfillRandomness",
      "outputs": [],
      "stateMutability": "nonpayable",
      "type": "function"
    },
    {
      "inputs": [
        {
          "internalType": "uint256",
          "name": "userProvidedSeed",
          "type": "uint256"
        }
      ],
      "name": "getRandomNumber",
      "outputs": [
        {
          "internalType": "bytes32",
          "name": "requestId",
          "type": "bytes32"
        }
      ],
      "stateMutability": "nonpayable",
      "type": "function"
    },
    {
      "inputs": [
        {
          "internalType": "contract LotteryContract",
          "name": "UseNum",
          "type": "address"
        }
      ],
      "name": "randUseCount",
      "outputs": [
        {
          "internalType": "uint256",
          "name": "",
          "type": "uint256"
        }
      ],
      "stateMutability": "nonpayable",
      "type": "function"
    },
    {
      "inputs": [],
      "name": "viewRand",
      "outputs": [
        {
          "internalType": "uint256",
          "name": "",
          "type": "uint256"
        }
      ],
      "stateMutability": "view",
      "type": "function"
    }
  ],
  "bytecode": "0x60c0604052600480546001600160a01b0319163317905534801561002257600080fd5b507fdd3782915140c8f3b190b5d67eac6dc5760c46e900000000000000000000000060a0527fa36085f69e2889c224210f603d836748e7dc00880000000000000000000000006080527f6c3699283bda56ad74f6b855546325b68d482e983852a7a82979cc4807b641f460015567016345785d8a000060025573a36085f69e2889c224210f603d836748e7dc008873dd3782915140c8f3b190b5d67eac6dc5760c46e96105ef6100f26000396000818161015701526103160152600081816101f301526102e701526105ef6000f3fe608060405234801561001057600080fd5b50600436106100575760003560e01c8063380f37711461005c57806342619f661461007257806371a75a4d1461007b57806394985ddd1461008e578063b37217a4146100a3575b600080fd5b6003545b60405190815260200160405180910390f35b61006060035481565b6100606100893660046104b4565b6100b6565b6100a161009c366004610493565b61014c565b005b6100606100b13660046104db565b6101cf565b6000816001600160a01b031663457082276040518163ffffffff1660e01b815260040160206040518083038186803b1580156100f157600080fd5b505afa158015610105573d6000803e3d6000fd5b505050506040513d601f19601f8201168201806040525081019061012991906104f3565b6003546101369190610599565b610141906001610575565b600381905592915050565b336001600160a01b037f000000000000000000000000000000000000000000000000000000000000000016146101c95760405162461bcd60e51b815260206004820152601f60248201527f4f6e6c7920565246436f6f7264696e61746f722063616e2066756c66696c6c0060448201526064015b60405180910390fd5b60035550565b6002546040516370a0823160e01b8152306004820152600091906001600160a01b037f000000000000000000000000000000000000000000000000000000000000000016906370a082319060240160206040518083038186803b15801561023557600080fd5b505afa158015610249573d6000803e3d6000fd5b505050506040513d601f19601f8201168201806040525081019061026d91906104f3565b10156102cf5760405162461bcd60e51b815260206004820152602b60248201527f4e6f7420656e6f756768204c494e4b202d2066696c6c20636f6e74726163742060448201526a1dda5d1a0819985d58d95d60aa1b60648201526084016101c0565b6102dd6001546002546102e3565b92915050565b60007f00000000000000000000000000000000000000000000000000000000000000006001600160a01b0316634000aea07f000000000000000000000000000000000000000000000000000000000000000084866000604051602001610353929190918252602082015260400190565b6040516020818303038152906040526040518463ffffffff1660e01b81526004016103809392919061050b565b602060405180830381600087803b15801561039a57600080fd5b505af11580156103ae573d6000803e3d6000fd5b505050506040513d601f19601f820116820180604052508101906103d2919061046c565b5060008381526020818152604080832054815180840188905280830185905230606082015260808082018390528351808303909101815260a09091019092528151918301919091208684529290915261042c906001610575565b6000858152602081815260409182902092909255805180830187905280820184905281518082038301815260609091019091528051910120949350505050565b60006020828403121561047d578081fd5b8151801515811461048c578182fd5b9392505050565b600080604083850312156104a5578081fd5b50508035926020909101359150565b6000602082840312156104c5578081fd5b81356001600160a01b038116811461048c578182fd5b6000602082840312156104ec578081fd5b5035919050565b600060208284031215610504578081fd5b5051919050565b60018060a01b0384168152600060208481840152606060408401528351806060850152825b8181101561054c57858101830151858201608001528201610530565b8181111561055d5783608083870101525b50601f01601f19169290920160800195945050505050565b6000821982111561059457634e487b7160e01b81526011600452602481fd5b500190565b6000826105b457634e487b7160e01b81526012600452602481fd5b50069056fea26469706673582212208537b1b88c49b985754ae193f7d46f2b744a71e28453d21587a16fe8e4f9066864736f6c63430008040033",
  "immutableReferences": {
    "73": [
      {
        "length": 32,
        "start": 499
      },
      {
        "length": 32,
        "start": 743
      }
    ],
    "75": [
      {
        "length": 32,
        "start": 343
      },
      {
        "length": 32,
        "start": 790
      }
    ]
  },
  "source": "pragma solidity >=0.4.23 <0.9.0;\nimport \"@chainlink/contracts/src/v0.8/VRFConsumerBase.sol\";\ncontract LotteryContract{\n    enum state {Standby,Ready,Deployed}\n    uint256 stateNum;\n    mapping (address => string[]) public addr;\n    mapping (uint => address[]) LottoRand;\n    address owner;\n    address[] public addreses;\n    bool ticketCheck;\n    uint256 public userCount = 0;\n    constructor() {\n    owner = msg.sender;\n\n\n    }\n    function userAdd() private {\n        userCount ++;\n        addreses.push(msg.sender);\n    }\n    function TicketGen() public payable returns(address) {\n        if (msg.value == 0.1 ether) {\n            ticketCheck = true;\n            userAdd();\n        }\n        require(ticketCheck = true);\n        userCountView();\n        return (msg.sender);\n    }\n    function userCountView() public view returns (uint256 UserNumber) {\n        UserNumber = userCount;\n        return UserNumber;\n    }\n    modifier adminCheck() {\n        require(msg.sender == owner);\n        _;\n\n    }\n       function LottoReward(RandomNumberConsumer Reward) adminCheck public {\n        payable(addreses[Reward.randomResult()]).transfer(0.1 ether);\n    }\n\n}\ncontract RandomNumberConsumer is VRFConsumerBase{\n\n    bytes32 internal keyHash;\n    uint256 internal fee;\n    uint256 public randomResult;\n    address owner = msg.sender;\n\n    /**\n     * Constructor inherits VRFConsumerBase\n     *\n     * Network: Kovan\n     * Chainlink VRF Coordinator address: 0xdD3782915140c8f3b190B5D67eAc6dc5760C46E9\n     * LINK token address:                0xa36085F69e2889c224210F603D836748e7dC0088\n     * Key Hash: 0x6c3699283bda56ad74f6b855546325b68d482e983852a7a82979cc4807b641f4\n     */\n    constructor()\n\n        VRFConsumerBase(\n            0xdD3782915140c8f3b190B5D67eAc6dc5760C46E9, // VRF Coordinator\n            0xa36085F69e2889c224210F603D836748e7dC0088  // LINK Token\n        )\n    {\n        keyHash = 0x6c3699283bda56ad74f6b855546325b68d482e983852a7a82979cc4807b641f4;\n        fee = 0.1 * 10 ** 18; // 0.1 LINK\n    }\n\n    /**\n     * Requests randomness from a user-provided seed\n     ************************************************************************************\n     *                                    STOP!                                         *\n     *         THIS FUNCTION WILL FAIL IF THIS CONTRACT DOES NOT OWN LINK               *\n     *         ----------------------------------------------------------               *\n     *         Learn how to obtain testnet LINK and fund this contract:                 *\n     *         ------- https://docs.chain.link/docs/acquire-link --------               *\n     *         ---- https://docs.chain.link/docs/fund-your-contract -----               *\n     *                                                                                  *\n     ************************************************************************************/\n    modifier adminConfirm() {\n        require(msg.sender == owner);\n        _;\n    }\n    function getRandomNumber(uint256 userProvidedSeed) public returns (bytes32 requestId) {\n        require(LINK.balanceOf(address(this)) >= fee, \"Not enough LINK - fill contract with faucet\");\n        return requestRandomness(keyHash,fee);\n    }\n\n    /**\n     * Callback function used by VRF Coordinator\n     */\n    function fulfillRandomness(bytes32 requestId, uint256 randomness) internal override {\n        randomResult = randomness;\n\n    }\n\n    /**\n     * Withdraw LINK from this contract\n     *\n     * DO NOT USE THIS IN PRODUCTION AS IT CAN BE CALLED BY ANY ADDRESS.\n     * THIS IS PURELY FOR EXAMPLE PURPOSES.\n     */\n    function randUseCount(LotteryContract UseNum) public returns (uint){\n        randomResult = randomResult % (UseNum.userCountView())+1;\n        return (randomResult);\n\n    }\n    function viewRand() public view returns(uint) {\n        return randomResult;\n    }\n    //function LottoReward(testContract Reward) adminConfirm public {\n      //  payable(Reward.addreses(viewRand())).transfer(50 wei);\n    //}\n\n}",
  "sourcePath": "/home/th3shadow/Documents/BlockChain Stuff/Lottery/contracts/Lottery.sol",
  "compiler": {
    "name": "solc",
    "version": "0.8.4+commit.c7e474f2.Emscripten.clang"
  },
  "schemaVersion": "3.4.1",
  "updatedAt": "2021-07-24T15:24:28.602Z",
  "devdoc": {
    "kind": "dev",
    "methods": {},
    "version": 1
  },
  "userdoc": {
    "kind": "user",
    "methods": {
      "constructor": {
        "notice": "Constructor inherits VRFConsumerBase Network: Kovan Chainlink VRF Coordinator address: 0xdD3782915140c8f3b190B5D67eAc6dc5760C46E9 LINK token address:                0xa36085F69e2889c224210F603D836748e7dC0088 Key Hash: 0x6c3699283bda56ad74f6b855546325b68d482e983852a7a82979cc4807b641f4"
      },
      "randUseCount(address)": {
        "notice": "Withdraw LINK from this contract DO NOT USE THIS IN PRODUCTION AS IT CAN BE CALLED BY ANY ADDRESS. THIS IS PURELY FOR EXAMPLE PURPOSES."
      }
    },
    "version": 1
  }
}