{
  "contractName": "testContract",
  "abi": [
    {
      "inputs": [],
      "stateMutability": "nonpayable",
      "type": "constructor"
    },
    {
      "inputs": [
        {
          "internalType": "address",
          "name": "",
          "type": "address"
        },
        {
          "internalType": "uint256",
          "name": "",
          "type": "uint256"
        }
      ],
      "name": "addr",
      "outputs": [
        {
          "internalType": "string",
          "name": "",
          "type": "string"
        }
      ],
      "stateMutability": "view",
      "type": "function",
      "constant": true
    },
    {
      "inputs": [
        {
          "internalType": "uint256",
          "name": "",
          "type": "uint256"
        }
      ],
      "name": "addreses",
      "outputs": [
        {
          "internalType": "address",
          "name": "",
          "type": "address"
        }
      ],
      "stateMutability": "view",
      "type": "function",
      "constant": true
    },
    {
      "inputs": [],
      "name": "userCount",
      "outputs": [
        {
          "internalType": "uint256",
          "name": "",
          "type": "uint256"
        }
      ],
      "stateMutability": "view",
      "type": "function",
      "constant": true
    },
    {
      "inputs": [],
      "name": "TicketGen",
      "outputs": [
        {
          "internalType": "address",
          "name": "",
          "type": "address"
        }
      ],
      "stateMutability": "payable",
      "type": "function",
      "payable": true
    },
    {
      "inputs": [],
      "name": "userCountView",
      "outputs": [
        {
          "internalType": "uint256",
          "name": "UserNumber",
          "type": "uint256"
        }
      ],
      "stateMutability": "view",
      "type": "function",
      "constant": true
    },
    {
      "inputs": [
        {
          "internalType": "contract RandomNumberConsumer",
          "name": "Reward",
          "type": "address"
        }
      ],
      "name": "LottoReward",
      "outputs": [],
      "stateMutability": "nonpayable",
      "type": "function"
    }
  ],
  "bytecode": "0x6080604052600060065534801561001557600080fd5b50600380546001600160a01b0319163317905561051d806100376000396000f3fe6080604052600436106100555760003560e01c806307973ccf1461005a578063457082271461008357806358089798146100985780635f9a29df146100b857806371f1b8e4146100e5578063f80aad7614610105575b600080fd5b34801561006657600080fd5b5061007060065481565b6040519081526020015b60405180910390f35b34801561008f57600080fd5b50600654610070565b6100a0610127565b6040516001600160a01b03909116815260200161007a565b3480156100c457600080fd5b506100d86100d336600461037e565b610161565b60405161007a9190610400565b3480156100f157600080fd5b506100a06101003660046103ce565b61021a565b34801561011157600080fd5b506101256101203660046103aa565b610244565b005b60003467016345785d8a0000141561014e576005805460ff1916600117905561014e610325565b6005805460ff1916600117905533905090565b6001602052816000526040600020818154811061017d57600080fd5b9060005260206000200160009150915050805461019990610455565b80601f01602080910402602001604051908101604052809291908181526020018280546101c590610455565b80156102125780601f106101e757610100808354040283529160200191610212565b820191906000526020600020905b8154815290600101906020018083116101f557829003601f168201915b505050505081565b6004818154811061022a57600080fd5b6000918252602090912001546001600160a01b0316905081565b6003546001600160a01b0316331461025b57600080fd5b6004816001600160a01b03166342619f666040518163ffffffff1660e01b815260040160206040518083038186803b15801561029657600080fd5b505afa1580156102aa573d6000803e3d6000fd5b505050506040513d601f19601f820116820180604052508101906102ce91906103e7565b815481106102de576102de6104b9565b60009182526020822001546040516001600160a01b03909116919067016345785d8a00009082818181858883f19350505050158015610321573d6000803e3d6000fd5b5050565b6006805490600061033583610490565b9091555050600480546001810182556000919091527f8a35acfbc15ff81a39ae7d344fd709f28e8600b4aa8c65c6b64bfe7fe36bd19b0180546001600160a01b03191633179055565b6000806040838503121561039157600080fd5b823561039c816104cf565b946020939093013593505050565b6000602082840312156103bc57600080fd5b81356103c7816104cf565b9392505050565b6000602082840312156103e057600080fd5b5035919050565b6000602082840312156103f957600080fd5b5051919050565b600060208083528351808285015260005b8181101561042d57858101830151858201604001528201610411565b8181111561043f576000604083870101525b50601f01601f1916929092016040019392505050565b600181811c9082168061046957607f821691505b6020821081141561048a57634e487b7160e01b600052602260045260246000fd5b50919050565b60006000198214156104b257634e487b7160e01b600052601160045260246000fd5b5060010190565b634e487b7160e01b600052603260045260246000fd5b6001600160a01b03811681146104e457600080fd5b5056fea26469706673582212203b5736694b943209740a2ad4242e8d81ca87e35e777e7b02ffe3a3c8b859909c64736f6c63430008060033",
  "immutableReferences": {},
  "source": "pragma solidity >=0.4.23 <0.9.0;\n\nimport \"@chainlink/contracts/src/v0.8/VRFConsumerBase.sol\";\ncontract testContract {\n    enum state {Standby,Ready,Deployed}\n    uint256 stateNum;\n    mapping (address => string[]) public addr;\n    mapping (uint => address[]) LottoRand;\n    address owner;\n    address[] public addreses;\n    bool ticketCheck;\n    uint256 public userCount = 0;\n    constructor() {\n    owner = msg.sender;\n\n\n    }\n    function userAdd() private {\n        userCount ++;\n        addreses.push(msg.sender);\n    }\n    function TicketGen() public payable returns(address) {\n        if (msg.value == 0.1 ether) {\n            ticketCheck = true;\n            userAdd();\n        }\n        require(ticketCheck = true);\n        userCountView();\n        return (msg.sender);\n    }\n    function userCountView() public view returns (uint256 UserNumber) {\n        UserNumber = userCount;\n        return UserNumber;\n    }\n    modifier adminCheck() {\n        require(msg.sender == owner);\n        _;\n\n    }\n       function LottoReward(RandomNumberConsumer Reward) adminCheck public {\n        payable(addreses[Reward.randomResult()]).transfer(0.1 ether);\n    }\n\n}\ncontract RandomNumberConsumer is VRFConsumerBase{\n\n    bytes32 internal keyHash;\n    uint256 internal fee;\n    uint256 public randomResult;\n    address owner = msg.sender;\n\n    /**\n     * Constructor inherits VRFConsumerBase\n     *\n     * Network: Kovan\n     * Chainlink VRF Coordinator address: 0xdD3782915140c8f3b190B5D67eAc6dc5760C46E9\n     * LINK token address:                0xa36085F69e2889c224210F603D836748e7dC0088\n     * Key Hash: 0x6c3699283bda56ad74f6b855546325b68d482e983852a7a82979cc4807b641f4\n     */\n    constructor()\n\n        VRFConsumerBase(\n            0xdD3782915140c8f3b190B5D67eAc6dc5760C46E9, // VRF Coordinator\n            0xa36085F69e2889c224210F603D836748e7dC0088  // LINK Token\n        )\n    {\n        keyHash = 0x6c3699283bda56ad74f6b855546325b68d482e983852a7a82979cc4807b641f4;\n        fee = 0.1 * 10 ** 18; // 0.1 LINK\n    }\n\n    /**\n     * Requests randomness from a user-provided seed\n     ************************************************************************************\n     *                                    STOP!                                         *\n     *         THIS FUNCTION WILL FAIL IF THIS CONTRACT DOES NOT OWN LINK               *\n     *         ----------------------------------------------------------               *\n     *         Learn how to obtain testnet LINK and fund this contract:                 *\n     *         ------- https://docs.chain.link/docs/acquire-link --------               *\n     *         ---- https://docs.chain.link/docs/fund-your-contract -----               *\n     *                                                                                  *\n     ************************************************************************************/\n    modifier adminConfirm() {\n        require(msg.sender == owner);\n        _;\n    }\n    function getRandomNumber(uint256 userProvidedSeed) public returns (bytes32 requestId) {\n        require(LINK.balanceOf(address(this)) >= fee, \"Not enough LINK - fill contract with faucet\");\n        return requestRandomness(keyHash,fee);\n    }\n\n    /**\n     * Callback function used by VRF Coordinator\n     */\n    function fulfillRandomness(bytes32 requestId, uint256 randomness) internal override {\n        randomResult = randomness;\n\n    }\n\n    /**\n     * Withdraw LINK from this contract\n     *\n     * DO NOT USE THIS IN PRODUCTION AS IT CAN BE CALLED BY ANY ADDRESS.\n     * THIS IS PURELY FOR EXAMPLE PURPOSES.\n     */\n    function randUseCount(testContract UseNum) public returns (uint){\n        randomResult = randomResult % (UseNum.userCountView())+1;\n        return (randomResult);\n\n    }\n    function viewRand() public view returns(uint) {\n        return randomResult;\n    }\n    //function LottoReward(testContract Reward) adminConfirm public {\n      //  payable(Reward.addreses(viewRand())).transfer(50 wei);\n    //}\n\n}",
  "sourcePath": "/home/th3shadow/Documents/BlockChain Stuff/Lottery/contracts/Lottery.sol",
  "compiler": {
    "name": "solc",
    "version": "0.8.6+commit.11564f7e.Emscripten.clang"
  },
  "schemaVersion": "3.4.1",
  "updatedAt": "2021-07-20T16:20:37.291Z",
  "networkType": "ethereum",
  "devdoc": {
    "kind": "dev",
    "methods": {},
    "version": 1
  },
  "userdoc": {
    "kind": "user",
    "methods": {},
    "version": 1
  }
}