{
  "contractName": "testest",
  "abi": [
    {
      "inputs": [],
      "name": "taskCount",
      "outputs": [
        {
          "internalType": "uint256",
          "name": "",
          "type": "uint256"
        }
      ],
      "stateMutability": "view",
      "type": "function",
      "constant": true
    }
  ],
  "bytecode": "0x608060405260008055348015601357600080fd5b50607d806100226000396000f3fe6080604052348015600f57600080fd5b506004361060285760003560e01c8063b6cb58a514602d575b600080fd5b603560005481565b60405190815260200160405180910390f3fea264697066735822122092500c7156d8700416846e8757da52d8133201102fc47f911e565e64a1efebbd64736f6c63430008060033",
  "immutableReferences": {},
  "source": "pragma solidity >=0.4.23 <0.9.0;\n\ncontract testest {\n    uint  public taskCount = 0;\n}\n",
  "sourcePath": "/home/th3shadow/Documents/BlockChain Stuff/Lottery/contracts/testest.sol",
  "compiler": {
    "name": "solc",
    "version": "0.8.6+commit.11564f7e.Emscripten.clang"
  },
  "schemaVersion": "3.4.1",
  "updatedAt": "2021-07-20T16:20:37.490Z",
  "networkType": "ethereum",
  "devdoc": {
    "kind": "dev",
    "methods": {},
    "version": 1
  },
  "userdoc": {
    "kind": "user",
    "methods": {},
    "version": 1
  }
}